:020000040800F2
:100000008807002021180008F5010008F701000802
:10001000F9010008FB010008FD01000800000000D4
:10002000000000000000000000000000FF010008C8
:100030000102000800000000030200080502000899
:100040003B1800083B1800083B1800083B18000844
:100050003B1800083B1800083B1800083B18000834
:100060003B1800083B1800083B1800083B18000824
:100070003B1800083B1800083B1800083B18000814
:100080003B1800083B1800083B1800083B18000804
:100090003B1800083B1800083B1800083B180008F4
:1000A0003B180008DD1500083B1800083B18000845
:1000B0003B1800083B1800083B1800083B180008D4
:1000C0003B1800083B1800083B1800083B180008C4
:1000D0003B1800083B1800083B180008C50400083E
:1000E0003B1800083B1800083B1800083B180008A4
:1000F0003B1800083B1800083B1800083B18000894
:100100003B1800083B1800083B1800083B18000883
:100110003B1800083B1800083B1800083B18000873
:100120003B1800083B1800083B1800083B18000863
:1001300000F002F800F04AF80AA090E8000C8244AF
:100140008344AAF10107DA4501D100F03FF8AFF28C
:10015000090EBAE80F0013F0010F18BFFB1A43F0A5
:1001600001031847AC3E0000CC3E0000103A24BF0B
:1001700078C878C1FAD8520724BF30C830C144BF0C
:1001800004680C607047000000230024002500264E
:10019000103A28BF78C1FBD8520728BF30C148BFEA
:1001A0000B60704703681B0A28BF41F08001642977
:1001B00002F01E87E42902F05787732903F0BF81FC
:1001C000002070471FB51FBD10B510BD03F0D2F958
:1001D0001146FFF7F7FF00F008F803F0F0F903B459
:1001E000FFF7F2FF03BC01F06BFA00F0DCFD00F05A
:1001F0009DFEFCE77047FEE7FEE7FEE7FEE770477F
:1002000070477047704700000CB5002201920092C1
:100210005248016841F4803101604FF4A0630168E5
:1002200001F4003100910199491C0191009911B923
:1002300001999942F3D10168890302D50121009106
:1002400000E000920099012930D145490A6842F046
:1002500010020A600A6822F003020A600A6842F08B
:1002600002020A604168416041684160416841F4AE
:1002700080614160416821F47C114160416841F432
:10028000E8114160016841F08071016001688901F5
:10029000FCD5416821F003014160416841F0020151
:1002A00041604168C1F381010229FAD10CBDABE77D
:1002B00010B52A48016841F0010101604168294AEE
:1002C000114041600168284A11400160016821F431
:1002D00080210160416821F4FE0141604FF41F015B
:1002E0008160FFF7E4FF21494FF00060086010BD16
:1002F00010B51A4A506800F00C011D4B1D4800292A
:100300000ED004290ED008290ED003605168194A76
:10031000C1F30311121D515C0268CA40026010BD96
:100320000360F3E70360F1E7516801F4701153686B
:1003300003F48033022404EB914133B153689B03EF
:1003400007D50D4B59430160E0E70B4B5943016062
:10035000DCE7074B59430160D8E70000001002407A
:10036000002002400000FFF8FFFFF6FE08ED00E06D
:1003700000127A000000002000093D0030B587B06F
:100380000121880401F042FD0121082001F033FD24
:100390004FF48060ADF8180003248DF81A4018203F
:1003A0008DF81B006C4D06A9284601F01EFBE914D0
:1003B000ADF8181004218DF81B1006A9284601F08D
:1003C00014FB27208DF804008DF805408DF80640B9
:1003D00001208DF8070001A801F047FA4FF41650EC
:1003E00002900024ADF80C40ADF80E40ADF810407E
:1003F000ADF814400C20ADF81200584D02A9284663
:1004000001F098FD012240F22551284601F019FE25
:100410000121284601F009FE514D8021281D02F0DE
:1004200073FF2C706C8007B030BDF0B5A1B0A52271
:100430008DF804200023012201AD07E0841814F890
:10044000014CAC542344DBB2521C92B28A42F5D91F
:10045000681843705A2282700024404ECF1C0BE073
:10046000295D304601F042FE8021304601F0ABFEAE
:100470000028F9D0641CA4B2BC42F1D321B0F0BD75
:1004800037480078704736488078704710B5024684
:10049000FFF7F6FF022801D0032010BD0021304CE9
:1004A00004E0601800795054491C89B26088884281
:1004B000F7D88021201D02F027FF002020706080E7
:1004C000022010BD2DE9F0410024244D40F22551B9
:1004D000284601F083FE002811D0284601F00AFECC
:1004E000C1B21F4D287860B1002601280ED0032824
:1004F00005D18021281D02F007FF2E706E80BDE817
:10050000F081A529FBD101202870F8E703205A29A2
:1005100005D06A88531C2A446B80117117E00021B2
:100520006B885A1E05E06F183F793C44E4B2491CC1
:1005300089B28A42F7DC0A49C91C5B5CA34205D137
:1005400092B26A8056540221297000E028706988AE
:100550008029D4D32870D2E7000C01400048004025
:100560007C00002010B5F94C4021204601F0ACFA87
:100570008021204601F0A8FA8021204601F0A6FA49
:100580002046BDE81040402101F0A0BA10B5EF4C64
:100590004021204601F098FA8021204601F096FA89
:1005A0002046BDE81040802101F08EBA10B5E74C1E
:1005B0004021204601F088FA2046BDE81040402145
:1005C00001F084BA70B50446E04E4021304601F097
:1005D0007DFA002504F08000802812D0802130466A
:1005E00001F074FA6006040E4021304601F06CFA06
:1005F0004021304601F06AFA6D1CEDB2082DE9D3B6
:1006000070BD8021304601F05FFAEBE710B504467B
:10061000FFF7A8FF7820FFF7D5FFFFF7C7FF0020FF
:10062000FFF7D0FFFFF7C2FF2046FFF7CBFFFFF732
:10063000BDFFBDE81040A9E710B50446FFF792FFE3
:100640007820FFF7BFFFFFF7B1FF4020FFF7BAFFA9
:10065000FFF7ACFF2046FFF7B5FFFFF7A7FFBDE8A8
:10066000104093E7002901D0C0B2E5E7C0B2CDE762
:1006700070B50025002105F1B000FFF7F3FF002160
:100680000846FFF7EFFF00211020FFF7EBFF0024E3
:1006900001210020FFF7E6FF641CE4B2802CF7D3B1
:1006A0006D1CEDB2082DE5D370BD38B501210820D1
:1006B00001F0A1FB0121082001F09DFB4020ADF8D5
:1006C000000010208DF8030003208DF802009F4CDD
:1006D0006946204601F089F98021ADF8001069468D
:1006E000204601F082F94021204601F0EDF98021F9
:1006F000204601F0E9F9642000F0C4FF0021AE209B
:10070000FFF7B0FF00210846FFF7ACFF00211020E3
:10071000FFF7A8FF00214020FFF7A4FF0021B02031
:10072000FFF7A0FF00218120FFF79CFF0021FF20A1
:10073000FFF798FF0021A120FFF794FF0021A620DA
:10074000FFF790FF0021A820FFF78CFF00213F203A
:10075000FFF788FF0021C820FFF784FF0021D32086
:10076000FFF780FF00210846FFF77CFF0021D5201E
:10077000FFF778FF00218020FFF774FF0021D820C9
:10078000FFF770FF00210520FFF76CFF0021D92043
:10079000FFF768FF0021F120FFF764FF0021DA2056
:1007A000FFF760FF00211220FFF75CFF0021DB2034
:1007B000FFF758FF00213020FFF754FF00218D2064
:1007C000FFF750FF00211420FFF74CFF0021AF205E
:1007D000FFF748FF642000F055FFFFF749FF38BDE1
:1007E00070B506460025002105F1B000FFF73AFF7D
:1007F00000210846FFF736FF00211020FFF732FFE7
:10080000002401213046FFF72DFF641CE4B2802C48
:10081000F7D36D1CEDB2082DE5D370BD10B50446BD
:1008200008460021B030FFF71DFF102040EA1410E9
:100830000021FFF717FF04F00F00BDE81040002172
:1008400010E710B500218D20FFF70CFF00211420C8
:10085000FFF708FF0021BDE81040AF2002E710B508
:1008600000218D20FFF7FEFE00211020FFF7FAFE89
:100870000021BDE81040AE20F4E670B5002500214F
:1008800005F1B000FFF7EEFE00210846FFF7EAFE93
:1008900000211020FFF7E6FE002401210846FFF7A3
:1008A000E1FE641CE4B2802CF7D36D1CEDB2082D80
:1008B000E5D370BD2DE9F04180460F460024203A73
:1008C000D5B2B8F17F0F02D9A046BF1CFFB2102BE2
:1008D00012D039464046FFF7A1FF1D4905EB450000
:1008E00001EB40050121285DFFF7BCFE641CE4B26A
:1008F000062CF7D3BDE8F08139464046FFF78EFF5E
:10090000144E04EB05100121305CFFF7ABFE641CB4
:10091000E4B2082CF5D37F1CF9B24046FFF77EFF06
:10092000002404EB051030440121007AFFF79AFE01
:10093000641CE4B2082CF4D3DCE70346012000E099
:100940005843491EC9B2FBD270470000000C014059
:10095000E63500080E3800082DE9F05F8046DDF826
:1009600028A08B4691461D46002600244FEA5A07D0
:100970001DE0281B401EC1B20A20FFF7DEFFB9FBB5
:10098000F0F00A21B0FBF1F201FB120026B9691E5A
:100990008C4201DA78B101263030C2B207FB048004
:1009A000C0B253465946FFF785FF641CE4B2AC421F
:1009B000DFD3BDE8F09F07FB0480C0B2534630226E
:1009C0005946FFF777FFF0E72DE9F04104460E4660
:1009D0001746984600250DE0434631462046FFF76E
:1009E00069FF0834E4B2782C02D90024B61CF6B2B0
:1009F0006D1CEDB27A5D002AEED17BE72DE9F04760
:100A00008246DDF820900E4690461F460025780766
:100A100011E031465046FFF701FF544607E02846F3
:100A20006D1C19F80000FFF707FE641CE4B2444592
:100A3000F5D3761CF6B2BE42EBD3BDE8F0872DE9C4
:100A4000F04781468846174641464846FFF7E6FE8E
:100A50000024214E06EB87150121285DFFF702FED9
:100A6000641CE4B2102CF7D308F1010808F0FF0170
:100A70004846FFF7D3FE0024012000EB470006EBB9
:100A800040150121285DFFF7EDFD641CE4B2102C38
:100A9000F7D3D2E72DE9F0478246DDF820900E46E5
:100AA00090461F460025780712E031465046FFF772
:100AB000B5FE544608E028466D1C19F800000121D7
:100AC000FFF7D0FD641CE4B24445F4D3761CF6B2C3
:100AD000BE42EAD3B1E70000FE3D000838B501216F
:100AE000052001F088F94FF48074ADF80040102023
:100AF0008DF8030002208DF80200634D69462846F8
:100B000000F073FF2146284600F0DEFF38BD08B52F
:100B10004FF48070ADF8000004208DF803006946A2
:100B2000594800F062FF08BD08B54FF48070ADF879
:100B3000000010208DF8030002208DF802006946A5
:100B4000514800F052FF08BD70B5FFF7EDFF4E4D64
:100B50004FF480742146284600F0B8FF142000F0BE
:100B600091FD2146284600F0AFFFBDE870401E20F1
:100B700000F071BD70B50024FFF7E6FFFFF7C7FF77
:100B80004FF48076404D04E0641CE4B2012000F094
:100B900062FD3146284600F083FF08B1642CF3D390
:100BA000642C01D3012070BD002404E0641CE4B275
:100BB000012000F050FD3146284600F071FF08B9D1
:100BC000642CF3D3642C01D3012070BD002070BDD0
:100BD00070B500244FF480762B4D04E0641CE4B221
:100BE000012000F038FD3146284600F059FF08B1D9
:100BF000642CF3D3002404E0641CE4B2012000F070
:100C00002AFD3146284600F04BFF08B9642CF3D387
:100C1000282000F020FD3146284600F041FF08B1B1
:100C2000012070BD002070BD70B500200124400679
:100C3000050EFFF7CDFF2843641CE4B2082CF6D95B
:100C400070BD10B50446FFF795FF08B1012010BD37
:100C5000FFF7EAFF2070FFF7E7FF6070FFF7E4FFA0
:100C6000A070FFF7E1FFE070FFF7DEFF2071217851
:100C70006278E3781144A2781A441144814201D188
:100C8000002010BD012010BD0008014008B5012161
:100C9000042001F0B0F88020ADF8000010208DF89D
:100CA000030003208DF802006946084800F09DFE0D
:100CB00007490020086008BD10B5054C01202060E0
:100CC000642000F0DFFC0020206010BD000801401F
:100CD0009C01214230B589B0D94C6078002860D0A1
:100CE000FFF7EAFFFFF7C4FC1023D6A20021202063
:100CF000FFF76AFE00F06EFCC4E90401A51D00F0D8
:100D000069FCD4E90432C31A61EB020144F62062A3
:100D10000020D21A88413CD300F05CFCD4E90423C3
:100D2000801A61EB03014FF47A72002302F09EF8FF
:100D30001422D0EB0202002363EB0103C4A101A83B
:100D400002F018F9102301AA06216E20FFF73CFEDD
:100D50002A88C1A101A802F00DF9102301AA0321DC
:100D60001420FFF731FE00F0F9F9411CC7D0032829
:100D70000FD0022807D00128C1D128880028BED072
:100D8000401E2880BBE728881428B8D2401C288041
:100D9000B5E700F01FFCC4E9040100206070FFF714
:100DA00067FC09B030BD10B500F03EFC4FF4A06008
:100DB00000F056FD4FF4165000F08CFCFFF7DEFA01
:100DC000FFF773FCFFF78AFEFFF760FF00F0B5F94D
:100DD0004FF47A7000F056FCA3A002F0BFF841F681
:100DE0001F41092000F09AFBFFF774FF0022A3497E
:100DF000A34800F043FAA34A0221A14800F055FAA3
:100E0000A14A05219E4800F050FABDE810409C48D8
:100E100000F04DBB70B588B00124894D28780028BA
:100E20007ED0FFF725FCFFF747FF102397A2002194
:100E30002020FFF7C9FD00F0CDFBC5E90401AE1D80
:100E400000F0C8FBD5E90423821A61EB030144F6E4
:100E5000206300209A1A88413BD322468EA168461F
:100E600002F088F810236A4603212A20FFF7ACFD20
:100E700000F0B0FBD5E90423801A61EB03014FF4C5
:100E80007A72002301F0F2FF1422D0EB0202002359
:100E900063EB01036EA1684602F06CF810236A460A
:100EA00006216E20FFF790FD00F058F9411CC7D0D5
:100EB00003280ED0022806D00128C1D1002CBFD0B3
:100EC000641EE4B2BCE73088A042B9D9641CE4B225
:100ED000B6E73088001B3080708820447080FFF7B0
:100EE000C7FB00F077FBC5E90401002028709DF8DE
:100EF00000001E21B1FBF0F1684602F027FA70886D
:100F0000694600F020FC694666A002F027F8718867
:100F1000A888814208D3694600F015FC694600E0C4
:100F200002E066A002F01AF808B070BD70B586B095
:100F30004348001DFFF7AAFA022802D164A002F07C
:100F40000DF83F4CA078012804D164A002F006F807
:100F50000020A070FFF7BEFE00F03CFBD4E90823A0
:100F6000801A374E61EB0301B61D624DC83871F12E
:100F700000000ED32846FFF764FEA878B0802878DA
:100F8000F08000F027FBC4E9080108213046FFF794
:100F90004CFA2B78AA7858A101A801F0EBFF0021A8
:100FA000102301AA0846FFF70FFD32882AA101A8E5
:100FB00001F0E0FF102301AA02210020FFF704FD49
:100FC000728852A101A801F0D5FF102301AA0421C3
:100FD0000020FFF7F9FC00F0FDFAD4E90432C01A52
:100FE00061EB02014FF47A752A46002301F03EFFBF
:100FF000D4E90632C01A914114D200F0EBFAD4E9D8
:101000000432C01A61EB02012A46002301F02EFFD0
:10101000D4E90623121A63EB01033FA101A801F0F2
:10102000A9FF03E03FA101A801F0A4FF102301AA3A
:1010300006210020FFF7C8FCFFF7ECFE06B070BDEC
:1010400020000020416464204D656E7500000000A2
:10105000252E326C6C64000052657374726963747F
:101060003A252E3264000000BBB6D3ADCAB9D3C353
:10107000D6C7C4DCD1CCBAD00000000031110008C2
:1010800000010020E3110008331200084F70656E64
:10109000204D656E750000006E756D3A252E326428
:1010A00000000000C4FAD2D1CEFCD1CC2573B8F92F
:1010B000C7EBD7A2D2E2C9EDCCE50000C4FAD2D189
:1010C000CEFCD1CCB3ACB9FD2573B8F9000000005B
:1010D000C9E8D6C3B3C9B9A600000000CEB4B5BDF7
:1010E000CEFCD1CCCAB1BCE4BDFBD6B9CEFCD1CCD0
:1010F0000000000014000020543A252E3264202005
:101100002020483A252E326400000000496E5F41DD
:101110006C6C3A252E33640074696D653A252E3364
:101120006C6C640074696D653A4F204E00000000DD
:101130004FF40041F24800F0B3BC08B5012108208B
:1011400000F059FE4FF47040ADF8000048208DF8D3
:1011500003006946EA4800F048FC08BD70B54FF04E
:10116000FF34E74D4FF480563146284600F098FC96
:1011700060B16E143146284600F092FCA0B17600B2
:101180003146284600F08CFCE0B128E00A2000F04F
:1011900079FA3146284600F083FC0028F9D00A206D
:1011A00000F070FA01241AE00A2000F06BFA3146D0
:1011B000284600F075FC0028F9D00A2000F062FAF9
:1011C00002240CE00A2000F05DFA3146284600F0C7
:1011D00067FC0028F9D00A2000F054FA03242046C6
:1011E00070BD2DE9F04100F0F5F9C64A4FF47A746C
:1011F0000026D2E90032C51AC34861EB0201D0E9EA
:101200000023A2FB047C03FB04C402FB064401266A
:101210007D1B8C4108D2BD490E700A3243F100019A
:10122000C0E90021BDE8F081B9480670FAE77047CF
:1012300070472DE9F04100F0CDF9B24A4FF47A74CD
:101240000026D2E90032C51AAF4861EB0201D0E9AD
:101250000023A2FB047C03FB04C402FB064401261A
:101260007D1B8C4107D2AB490E700A3243F100015D
:10127000C0E90021D6E7A6480670D3E770B504465A
:101280000D4616462821204602F060F8A07820F08E
:10129000F0008030A0706560A8470146E07861F3F7
:1012A000C71066F38610E07070BD00EB81008260AD
:1012B000704780780009704770B5044660688047C1
:1012C0000146E078420702D02288521C2280B1EB0E
:1012D000D01F10D04FF0005202EBB0104FEAB060B8
:1012E000C0F3C202E070052A08D361F3C71020F0F2
:1012F0003800E07002E020F03800E070E07800256F
:1013000000F0070106291CD2DFE801F00322498D15
:101310001BAAC0F38011B1EBD01F13D1A07820F02D
:10132000F000A070A16809B1204688472580A07808
:1013300020F00F00401CA070E07820F00700401C57
:10134000E07070BDA07820F0F0008030A07070BD1B
:10135000C0F38011B1EBD01F0FD0A07820F0F000C7
:101360001030A070E16809B1204688472580E078F8
:1013700020F00700801CE07070BD2088C828FBD9D1
:10138000A07820F0F0005030A070E16909B120464B
:101390008847E07820F00700401DE07070BDC0F382
:1013A0008011B1EBD01F12D1A16809B12046884746
:1013B000A0784FF0805101EB30104FEA3070A070F0
:1013C0002580E07820F00700C01CE07070BD208808
:1013D0003C28FBD9A07800F00F01012904D0022994
:1013E0000BD0032912D019E020F0F0002030A070BB
:1013F000216999B12046884710E020F0F000303094
:10140000A070616951B12046884707E020F0F000E4
:101410004030A070A16909B120468847E07820F0EB
:101420000700E07070BDC0F38011B1EBD01FF9D0A0
:10143000A07820F0F0001030A070E16809B12046DB
:10144000884720883C2806D22580E07820F00700D5
:10145000801CE07070BDE07820F00700E07070BD87
:10146000C0F38011B1EBD01F13D1A07820F0F000B1
:101470006030A07020886421B0FBF1F201FB120003
:101480000028ECD1216A0029E9D02046BDE870404F
:101490000847A07820F0F0001030A070E16809B192
:1014A00020468847E07820F00700E07070BD1A4BB6
:1014B00019680A4605E0814202D14FF0FF307047BB
:1014C000496A0029F7D14262186000207047124A29
:1014D00006E0814202D1496A116001E001F1240273
:1014E00011680029F5D1704710B50B48046803E076
:1014F0002046FFF7E1FE646A002CF9D110BD000020
:10150000000C0140300000203800002020000020A6
:101510002200002021000020480000207FB5044662
:101520000D460121C80200F066FCADF80840ADF898
:1015300004500024ADF80A40ADF806408DF80C4088
:10154000364D01A9284600F063FF012211462846C6
:1015500001F049FA19218DF800108DF8014003219E
:101560008DF8021001218DF80310684600F07DF916
:101570000121284601F01DFA7FBD7FB504460D46C6
:101580000121042000F042FCADF80840ADF8045001
:101590000024ADF80A40ADF80640214D01A92846C7
:1015A00000F036FF01221146284601F01CFA1E21E8
:1015B0008DF800108DF8014002218DF802100121F4
:1015C0008DF80310684600F050F90121284601F01B
:1015D000F0F97FBD1349D1E90201704710B50F4CF6
:1015E0000121204601F032FC88B10E49D1E90220E8
:1015F000521C40F10000C1E902200878401CC2B230
:101600000A70052A03D300200870FFF76DFF2046FB
:10161000BDE81040012101F016BC0000002C014083
:10162000000800405000002010B56FF0040000F0EA
:101630005FF9204820490068B0FBF1F01F49C0B2B3
:10164000087000EB4002C2EBC0104FF6FF7202EAD6
:10165000C000488010BD1949097848434FF0E02187
:10166000486100238B61086940F001000861086946
:10167000C20701D0C003FAD5086920F00100086153
:101680008B6170470D49498848434FF0E02148611C
:1016900000238B61086940F0010008610869C207F6
:1016A00001D0C003FAD5086920F0010008618B6100
:1016B000704700000000002000127A006000002047
:1016C00070474E490A885206FCD54C4AC1B2121DD9
:1016D0001180704730B585B00446012144F2040002
:1016E00000F089FB4FF40070ADF8100003208DF876
:1016F000120018208DF81300414D04A9284600F06F
:1017000074F92815ADF8100004208DF8130004A911
:10171000284600F06AF900940020ADF80400ADF806
:101720000600ADF80800ADF80C000820ADF80A007E
:10173000324C6946204600F0FDFB0121204600F0B6
:1017400074FC05B030BD2DE9F04393B004468846E3
:10175000B4F57A7F06D32BA1404601F073FD13B098
:10176000BDE8F08328222A4909A801F09BFD202129
:1017700001A801F0EBFD642094FBF0F594FBF0F17F
:1017800000FB11410A2091FBF0F794FBF0F100FB04
:1017900011460DF1240945B159F8251001A801F0B1
:1017A00075FD1CA101A801F071FD67B1012F00D1E9
:1017B00025B159F8271001A801F068FD16A101A86C
:1017C00001F064FD07E0002E05DD002D03DD13A10F
:1017D00001A801F05BFD701C04D059F8261001A887
:1017E00001F054FD0A2C03D10BA101A801F02AFD40
:1017F00001A9404601F026FDB1E700000038014094
:1018000000080140B3ACB3F6B7B6CEA700000000A5
:10181000C03F0008B0D90000CAAE0000C1E300001C
:101820000948804709480047FEE7FEE7FEE7FEE774
:10183000FEE7FEE7FEE7FEE7FEE7FEE704480549B0
:10184000054A064B70470000B1020008310100084C
:1018500088010020880700208803002088030020DA
:101860002A4908432A490860704770B50F23C27897
:1018700001260178002A1ED0254A126802F4E0628F
:10188000C2F5E062120AC2F10404D3404578A540D3
:1018900082781A402A43120101F1E02181F80024E4
:1018A000007800F01F018E404009800000F1E02028
:1018B000C0F8006170BD01F01F008640480980003B
:1018C00000F1E020C0F8806170BD124A1140014370
:1018D0000F48001F016070470D4A121D002903D0F8
:1018E00011680143116070471168814311607047AE
:1018F0004FF0E021042804D0086920F004000861BA
:101900007047086940F00400086170470000FA055C
:101910000CED00E080FFFF1F10B59C49884209D103
:101920000121042000F07DFA0021BDE810400420D0
:1019300000F077BA9649884209D10121082000F0C9
:1019400070FA0021BDE81040082000F06ABA914901
:10195000884209D10121102000F063FA0021BDE87E
:101960001040102000F05DBA8B49884209D1012156
:10197000202000F056FA0021BDE81040202000F0A1
:1019800050BA8649884209D10121402000F049FA25
:101990000021BDE81040402000F043BA8049884251
:1019A00009D10121802000F03CFA0021BDE810405F
:1019B000802000F036BA7B4988420AD18415012183
:1019C000204600F02EFA2046BDE81040002100F02D
:1019D00028BA10BD10B50121084600F022FA0021F6
:1019E000BDE81040012000F01CBA2DE9F0410022B2
:1019F000CC7804F00F03E40601D58C7823430C78EF
:101A00004FF00F0714F0FF0F4FF0010C1CD00568CA
:101A10000CFA02F40E882640A64211D1960007FA6D
:101A200006F825EA080503FA06F848EA0505CE781F
:101A3000282E02D0482E02D002E0446100E004616A
:101A4000521C082AE4D305600A88FF2A1ED945687B
:101A5000002202F108060CFA06F40E882640A6427F
:101A600010D1960007FA06F825EA080503FA06F8E9
:101A700048EA0505CE78282E00D14461CE78482E5C
:101A800000D10461521C082AE3D34560BDE8F0810F
:101A90004FF6FF710180022181700421C1707047EF
:101AA0000246002092680A4200D0012070478068F8
:101AB00080B2704702460020D2680A4200D001205E
:101AC0007047C06880B270470161704741617047DC
:101AD000002A01D00161704741617047C1607047C1
:101AE00041F48032826181618261816980697047DD
:101AF00010B52D4B1A684FF68074224042EA001050
:101B00000843186010BD2949C8617047F0B5264CDC
:101B1000002801DAE36900E06368C0F30346420D80
:101B2000120185B2C0F301579540032F07D0C202BE
:101B30000CD50322B240934343F0706209E023F0D6
:101B40007062636823F07063636002E0AB4343F04C
:101B5000706201B12A43002801DAE261F0BD6260DF
:101B6000F0BD10B58A07120F0F23934021F0030434
:101B70000D4921448C689C438C608B6890400343E2
:101B80008B6010BD0949DC310860704700080140D6
:101B9000000C0140001001400014014000180140F9
:101BA000001C0140002001400000014000002042D4
:101BB000B448016841F0010101604168B24A114036
:101BC00041600168B14A11400160016821F480213F
:101BD0000160416821F4FE0141604FF41F01816002
:101BE0007047A8490A6822F480320A600A6822F421
:101BF00080220A60B0F5803F07D0B0F5802F03D176
:101C0000086840F4A02008607047086840F48030FD
:101C1000086070470346002059099A4A01290AD0F2
:101C200002290AD0516A03F01F02012393400B429C
:101C300000D0012070471168F5E7116AF3E718B585
:101C4000002000904FF4A0643120FFF7E3FF0099DB
:101C5000491C00910099A14201D00028F4D0312004
:101C6000FFF7D8FF08B1012018BD002018BD854A34
:101C7000116821F0F80141EAC00010607047844902
:101C8000086070477F4B5A6822F47C120843104367
:101C9000586070477E49086670477A4A516821F05B
:101CA00003010143516070477648406800F00C0022
:101CB0007047744A516821F0F00101435160704748
:101CC000704A516821F4E0610143516070476D4AE8
:101CD000516821F4605141EAC00050607047694A80
:101CE000002903D0517A014351727047517A8143E0
:101CF000517270476649D83108607047614A51682F
:101D000021F440410143516070475E490022203177
:101D10000A7001F82029012805D0042802D10520E5
:101D200081F820007047012081F820007047594950
:101D30000860704753490A6A02430A62704755496E
:101D400044390860704710B54E4A516801F00C01E3
:101D5000514B002927D0042927D0082927D0036018
:101D6000516801F0F00109094C4B5C5C0168E140ED
:101D70004160546804F4E064240A1C5D21FA04F410
:101D80008460546804F46054E40A1B5DD940C16067
:101D9000526802F44042920B404B1B1F9A5CB1FB0D
:101DA000F2F1016110BD0360DAE70360D8E7516822
:101DB00001F47011536803F48033022404EB914161
:101DC00033B153689B0307D5354B59430160C7E7CF
:101DD000334B59430160C3E72F4B59430160BFE7C1
:101DE000284A002903D05169014351617047516964
:101DF000814351617047234A002903D0916901430F
:101E00009161704791698143916170471D4A002932
:101E100003D0D1690143D1617047D1698143D16158
:101E20007047184A002903D0D1680143D160704738
:101E3000D1688143D1607047124A002903D01169EB
:101E40000143116170471169814311617047114964
:101E50004039086070470E49C86470470949C87125
:101E600070470848416A41F08071416270470146FD
:101E70000020044A92680A4200D0012070470149BC
:101E800088727047001002400000FFF8FFFFF6FE66
:101E9000000042428004424200127A006C0000209E
:101EA00000093D0010B5E14988420AD101218C03A7
:101EB0002046FFF7B6FF2046BDE810400021FFF79F
:101EC000B0BFDB4988420AD101214C042046FFF70C
:101ED000B3FF2046BDE810400021FFF7ADBFD54954
:101EE00088420AD101218C042046FFF7A5FF204635
:101EF000BDE810400021FFF79FBFCF4988420AD1BB
:101F00000121CC042046FFF797FF2046BDE8104092
:101F10000021FFF791BFC94988420AD101210C0570
:101F20002046FFF789FF2046BDE810400021FFF75B
:101F300083BF10BD30B585B004460D46208A4CF6EF
:101F4000FF710840E98801432182A0894EF6F31110
:101F50000840A9882A8911436A8902431143A18153
:101F6000A08A4FF6FF410840A9890143A182684633
:101F7000FFF7E9FEAD48844201D1039800E00298E2
:101F8000A189090408D500EBC00101EB0010296804
:101F90004900B0FBF1F007E000EBC00101EB0010DD
:101FA00029688900B0FBF1F06422B0FBF2F109016D
:101FB0000B096FF018056B4300EB8300A3891D0428
:101FC0004FF0320307D503EBC000B0FBF2F000F096
:101FD0000700084306E003EB0010B0FBF2F000F04E
:101FE0000F000843208105B030BD4FF41651016049
:101FF00000218180C18001810C2242818181704752
:1020000010B5038A4FF2FF0213400A884C8822431E
:102010008C88C9880C4322431A43028210BD0021D8
:10202000018041808180C1807047002904D081896E
:1020300041F4005181817047818921F400518181EF
:10204000704710B540F66A13C1F3421301F01F0444
:102050000121A140012B07D0022B07D014303AB147
:1020600002680A43026010BD0C30F8E71030F6E752
:1020700002688A43026010BD002A03D0828A0A43A4
:1020800082827047828A8A4382827047028A22F063
:102090000F020282028A0A4302827047828922F476
:1020A0000062828182890A4382817047002904D0BC
:1020B000818941F0020181817047818921F002010B
:1020C00081817047028A22F020020282028A0A433A
:1020D00002827047002904D0018A41F480410182C4
:1020E0007047018A21F4804101827047C1F30801E1
:1020F000818070478088C0F308007047818941F073
:10210000010181817047028BD2B20283028B42EAC5
:10211000012101837047028B02F47F420283028B0C
:102120000A4302837047002904D0818A41F02001CC
:1021300081827047818A21F02001818270470029C5
:1021400004D0818A41F0100181827047818A21F098
:10215000100181827047002904D0818A41F0080172
:1021600081827047818A21F00801818270470029AD
:1021700004D0818941F40041818170478189C1F394
:102180000E0181817047002904D0818A41F40061E9
:1021900081827047818A21F4006181827047828A3E
:1021A00022F004028282828A0A43828270470029D6
:1021B00004D0818A41F0020181827047818A21F036
:1021C0000201818270470246002012880A4200D034
:1021D000012070478A05C9430180704770B500240B
:1021E00040F66A12C1F3421301F01F05012606FAF8
:1021F00005F2012B0CD0022B0DD0838A1340090A63
:102200008E40008830400BB100B10124204670BDE3
:1022100083891340F3E7038A1340F0E740F66A121C
:102220000A0A01219140C9430180704700380140EA
:102230000044004000480040004C00400050004076
:1022400010B5FE4988420AD1C41401212046FFF787
:10225000E8FD2046BDE810400021FFF7E2BDB0F1E7
:10226000804F0CD0F649884213D101210220FFF79C
:10227000E3FD0021BDE810400220FFF7DDBD012194
:102280000846FFF7D9FD0021BDE810400120FFF707
:10229000D3BDEC49884209D101210420FFF7CCFDD0
:1022A0000021BDE810400420FFF7C6BDE649884282
:1022B00009D101210820FFF7BFFD0021BDE8104032
:1022C0000820FFF7B9BDE149884209D1012110205A
:1022D000FFF7B2FD0021BDE810401020FFF7ACBDB4
:1022E000DB49884209D101212020FFF7A5FD00210B
:1022F000BDE810402020FFF79FBDD64988420AD193
:10230000441401212046FFF78CFD2046BDE8104013
:102310000021FFF786BDD04988420AD10121CC04B3
:102320002046FFF77EFD2046BDE810400021FFF764
:1023300078BDCA4988420AD101210C052046FFF721
:1023400070FD2046BDE810400021FFF76ABDC4497A
:1023500088420AD101214C052046FFF762FD204644
:10236000BDE810400021FFF75CBDBE49884209D19D
:1023700001214020FFF760FD0021BDE81040402012
:10238000FFF75ABDB849884209D101218020FFF7E3
:1023900053FD0021BDE810408020FFF74DBDB3493B
:1023A00088420AD1841501212046FFF745FD2046C9
:1023B000BDE810400021FFF73FBDAD4988420AD17A
:1023C00001210C042046FFF72CFD2046BDE81040FB
:1023D0000021FFF726BDA74988420AD101214C04FC
:1023E0002046FFF71EFD2046BDE810400021FFF704
:1023F00018BDA14988420AD101218C042046FFF76B
:1024000010FD2046BDE810400021FFF70ABD10BDB9
:1024100030B50288894C8F4DA0420DD0A8420BD018
:10242000B0F1804F08D0864B984205D0854B98423A
:1024300002D0854B984203D122F070034A881A4398
:10244000824B984206D0824B984203D022F44073CC
:10245000CA881A4302808A8882850A880285A04237
:102460000AD0A84208D0824A904205D0814A9042C0
:1024700002D0814A904201D1097A018601218182EC
:1024800030BD30B5028C22F001020284028C8388B8
:10249000048B24F0700424F003050C882C4322F0F4
:1024A00002020D8915434A882A43644DA8420BD085
:1024B000684DA84208D06E4DA84205D06D4DA84287
:1024C00002D06D4DA8420FD122F008054A892A4357
:1024D00022F004058A882A4323F4807323F40073CE
:1024E0008D891D43CB892B4383800483C9888186D2
:1024F000028430BD70B5028C22F010020284028C7E
:102500008388048B24F4E04424F440760D884FF64D
:10251000FF7404EA0525354322F020020E8904EAFF
:10252000061616434A8804EA02123243434EB0426A
:1025300002D0484EB04217D122F080024E8904EA00
:102540000616164326F040068A8804EA0212324331
:1025500023F4806323F400638E8904EA86061E4315
:10256000CB8904EA8303334383800583C9880187C9
:10257000028470BD70B5028C22F480720284028CD9
:102580008388848B24F0700424F003040D88254391
:1025900022F400720E894FF6FF7404EA06261643F1
:1025A0004A8804EA02223243244EB04202D0294E25
:1025B000B04217D122F400664A8904EA022232436B
:1025C00022F480668A8804EA0222324323F480538C
:1025D00023F400538E8904EA06161E43CB8904EACD
:1025E0000313334383808583C9888187028470BD48
:1025F00070B5028C22F480520284058C8288838B11
:1026000023F4E04323F440760C884FF6FF7303EA8B
:102610000424344325F400550E8903EA06362E437C
:102620004D8803EA05353543044EB04202D0094EC9
:10263000B04226D122F480468A891FE0002C014056
:102640000004004000080040000C00400010004062
:102650000014004000340140004C01400050014093
:102660000054014000180040001C004000200040C1
:1026700000400140004401400048014003EA82124A
:10268000324382808483C988A0F84010058470BDDD
:10269000828B22F440628283828B4FF6FF7303EABF
:1026A00001210A4382837047F0B5048C24F48054DE
:1026B0000484868B048C4FF6FF7505EA013726F4F7
:1026C000734605EA0222324305EA03331343F74A0D
:1026D00090420ED0F64A90420BD0B0F1804F08D015
:1026E000F44A904205D0F44A904202D0F34A904214
:1026F00005D124F40051394341F4805104E024F41D
:1027000002420A4342F4805183830184F0BD828BEC
:1027100022F00C028283828B0A4382837047F0B5D9
:10272000048C24F480740484858B048C4FF6FF772A
:1027300007EA012625F0F30507EA031313432B43A9
:10274000DA4A90420ED0DA4A90420BD0B0F1804F74
:1027500008D0D84A904205D0D74A904202D0D74AF2
:10276000904205D124F40071314341F4807104E0BA
:1027700024F420620A4342F4807183830184F0BD13
:10278000028B22F440620283028B4FF6FF7303EA4E
:1027900001210A4302837047F0B5048C24F0100431
:1027A0000484068B048C4FF6FF7505EA011726F4A6
:1027B000734605EA0333334305EA02221A43BB4B4F
:1027C00098420ED0BA4B98420BD0B0F1804F08D04F
:1027D000B84B984205D0B84B984202D0B74B9842BC
:1027E00005D124F02001394341F0100104E024F028
:1027F000A0030B4343F0100102830184F0BD028B60
:1028000022F00C020283028B0A430283704770B5E8
:10281000048C24F001040484058B048C25F0F3055A
:102820004FF6FF7606EA031313432B439F4A904269
:102830000ED09F4A90420BD0B0F1804F08D09D4AF5
:10284000904205D09C4A904202D09C4A904205D1C9
:1028500024F002020A4342F0010104E024F00A02DB
:102860000A4342F001010383018470BD70B505463F
:102870000C468E48854209D08D48854206D0B5F178
:10288000804F03D08B48854200D08B4820886188D8
:10289000A288238958B1042811D0082817D02846C7
:1028A000FFF702FFE1882846BDE87040F0E62846C1
:1028B000FFF7ADFFE1882846BDE870409FE7284656
:1028C000FFF76AFFE1882846BDE8704058E72846D0
:1028D000FFF725FFE1882846BDE8704017E72DE99E
:1028E000F04107460C46002501266188002900D1E9
:1028F0000225A288012A00D102262088238988B1D6
:102900003846FFF749FFE1883846FFF739FF23894A
:10291000324629463846FFF77AFFE1883846BDE857
:10292000F0416CE73846FFF772FFE1883846FFF761
:1029300066FF2389324629463846FFF72DFFE18896
:102940003846BDE8F0411BE710B50A884B88CC88B3
:102950001A438B8823431A430B891A434B8989896D
:102960001A430A43A0F8442010BD4FF6FF7181803E
:1029700000210180C18041800172704700210180E7
:1029800041808180C180018141818181C181704705
:1029900000210180418001228280C1800181704735
:1029A0000021018041808180C1800181418181813C
:1029B0007047002904D0018841F00101018070476F
:1029C000018821F0010101807047002905D030F80D
:1029D000441F41F400410180704730F8441FC1F3A7
:1029E0000E0101807047002A03D082890A43828148
:1029F000704782898A438281704781827047114380
:102A0000A0F848107047002A03D082890A438281C7
:102A1000704782898A4382817047018921F00701CA
:102A200001817047028922F070020A4302817047D7
:102A300000B503461846FFF7F5FF188940F0070078
:102A4000188100BD70B50D4604461146602D0CD0AE
:102A500001222046FFF7DBFE29462046FFF7E2FF72
:102A6000208940F00700208170BD01222046FFF739
:102A700093FEF1E730B50489E4B24FF6FF7505EA3D
:102A8000032313430B432343038130BD10B5044696
:102A90002046FFF7EFFF208920F0070040F00700F5
:102AA00020F0700040F07000208110BD002C01402B
:102AB000003401400004004000080040000C0040C9
:102AC00010B504462046FFF7D5FF208940F480402A
:102AD0002081EAE7018582827047028822F0700235
:102AE0000A430280704770B50589048B068C25F077
:102AF00007050D434FF6FC410C4040F201110C4319
:102B000026F022064FF6FF7101EA0311114331430B
:102B100005810483018470BD028B22F070020A4398
:102B200002837047028B22F4E0424FF6FF7303EA00
:102B30000121114301837047828B22F070020A4306
:102B400082837047828B22F4E0424FF6FF7303EAE0
:102B50000121114381837047002904D0018841F08D
:102B6000800101807047018821F080010180704759
:102B7000002904D0818841F0040181807047818858
:102B800021F0040181807047002904D0818841F040
:102B9000080181807047818821F008018180704799
:102BA000002904D0818841F001018180704781882B
:102BB00021F0010181807047028B22F008020A4354
:102BC00002837047028B22F400624FF6FF7303EA20
:102BD0000121114301837047828B22F008020A43CE
:102BE00082837047828B22F400624FF6FF7303EA00
:102BF0000121114381837047028B22F004020A43B2
:102C000002837047028B22F480624FF6FF7303EA5F
:102C10000121114301837047828B22F004020A4391
:102C200082837047828B22F480624FF6FF7303EA3F
:102C30000121114381837047028B22F080020A43F5
:102C400002837047028BC2F30E024FF6FF7303EA52
:102C50000121114301837047828B22F080020A43D5
:102C600082837047828BC2F30E024FF6FF7303EA32
:102C70000121114381837047028C22F002020A4332
:102C800002847047028C22F008020A4302847047D3
:102C9000028C22F020024FF6FF7303EA0111114368
:102CA00001847047028C22F080024FF6FF7303EA22
:102CB0000111114301847047028C22F400724FF617
:102CC000FF7303EA0121114301847047028C22F44F
:102CD00000624FF6FF7303EA01211143018470473C
:102CE000028C22F400524FF6FF7303EA01311143C4
:102CF0000184704710B501238B40048C9C430484ED
:102D0000038C8A4013430384CFE610B504238B4021
:102D1000048C9C430484038C8A4013430384C4E6DC
:102D200030B500F1180301248C40058CA5430584BF
:102D3000002911D008290FD0091FC1F34E001844F3
:102D4000016821F4E041016001684FF6FF7303EA76
:102D500002221143016030BD03EB5100016821F0F4
:102D60007001016001681143016030BD002904D089
:102D7000018841F0020101807047018821F00201C1
:102D800001807047002904D0018841F004010180CE
:102D90007047018821F0040101807047002904D0A8
:102DA000818841F0800181807047818821F0800115
:102DB00081807047028822F00802028002880A435C
:102DC00002807047828822F07002828082880A43E3
:102DD00082807047028922F00702028102890A4339
:102DE00002817047028922F08002028102890A432F
:102DF0000281704781847047818570478186704762
:102E00000187704781877047A0F84010704702889B
:102E100022F44072028002880A4302807047808E4A
:102E20007047008F7047808F7047B0F84000704740
:102E3000808C7047008D704702460020128A0A423B
:102E400000D001207047C94301827047024600202C
:102E5000138A0B4092890A40002B02D0002A00D02E
:102E600001207047C94301827047704753EA020C42
:102E700000F069802DE9F04B4FF00006002B1FBFDA
:102E8000B3FA83F503FA05F424FA05F65E4012BF9F
:102E90001643B2FA82F502FA05F4C5F120051EBF09
:102EA00022FA05FC44EA0C04203556EA044C4FEAA9
:102EB000144418BF641C4FF000084FF00009904202
:102EC00071EB030C39D3002919BFB1FA81F701FA6C
:102ED00007F6B0FA80F700FA07F6C7F120071EBF21
:102EE00020FA07FC46EA0C062037B6FBF4FCA7EBF9
:102EF0000507103F07F01F0BCBF120060CFA0BFB68
:102F00002CFA06F644BFB3460026202FA4BF5E4627
:102F10004FF0000B5BEA060C08BF4FF0010B19EBFA
:102F20000B09ABFB027C48EB0608C01B06FB02CC7E
:102F30000BFB03CC71EB0C01C1E70B46024641468B
:102F40004846BDE8F08B13B54FF000004FF000018C
:102F5000AFF30080BDE81C40704700000FB4044987
:102F600010B503AA029800F0EFFA10BC5DF814FB4C
:102F7000640000200FB41CB5074B06AA7B446946C9
:102F80000090059800F0B1FA0020694600F0C0FA00
:102F90001CBC5DF814FB00009105000070B50C46E8
:102FA0000546012A05D02878800600D5EA69002365
:102FB00002E0012305E05B1C934202D2E05C0028A2
:102FC000F9D1A869E618C01AA861286A18442862CD
:102FD0002846AFF3008004E0D5E9012114F8010B85
:102FE0009047B442F8D32846AFF3008070BD00008C
:102FF0002DE9F0410646002410687529314616A5D2
:1030000010D0AFF30080002802DA404213A507E099
:1030100031688A0701D512A502E0490704D511A538
:10302000012401E0AFF3008000210A2206F1240709
:1030300009E0B0FBF2FCB0FBF2F302FB1C00303005
:1030400078541846491C0028F3D123462A463046B6
:10305000BDE8F04100F0EAB9000000002D000000DA
:103060002B000000200000002DE9F0418046D21D19
:1030700022F007020025D2E90002F52915A614D096
:10308000011E72F1000106DA0023D0EB030063EBAE
:10309000020211A608E0D8F800108B0701D50FA690
:1030A00002E0490701D50EA601251146002408F1CA
:1030B000240704E000F075F930323A55641C50EAF8
:1030C0000102F7D12B46324621464046BDE8F04189
:1030D00000F0ACB9000000002D0000002B00000043
:1030E000200000002DE9F0474FF0000A8946044611
:1030F000C0F820A02046E1688847002876D025281F
:1031000006D0D4E901219047206A401C2062F1E7F3
:10311000E168204600268847C4F81CA00546002721
:10312000C4F818A02A2D09D0284600F055FA38B363
:1031300004EB8708303DC8F8185019E059F8041B13
:10314000204604EB87029161E1688847012F05461C
:1031500018D1E069002820DA26F020061DE0D8F812
:10316000180000EB800005EB40003038C8F818006C
:103170002046E1688847054600F02EFA0028EED187
:10318000012F0AD02E2D08D12046E16888477F1CE8
:103190000546022F46F02006C4DBA069002803DAAA
:1031A000404246F00106A061F00701D026F010066B
:1031B0006C2D0AD0682D08D04C2D39D06A2D35D011
:1031C000742D35D07A2D33D016E0E1682F46204695
:1031D0008847B84205460AD16C2F27D04FF480604B
:1031E000E168064320468847054605E027E06C2F46
:1031F0001AD04FF4807006430DB3A5F14100192891
:1032000002D8203546F400664A4629462046266004
:103210004E46FCF7C7FF80B101280BD0F61D26F003
:10322000070000F1080965E74020E4E78020D7E7C0
:103230000020D5E706F104095CE7284661E7206A2B
:10324000BDE8F08740EA0103024630B59B0710D184
:103250004FF0013400E008C208C91D1B9D4315EA68
:10326000C41FF8D013F0FF0102F8011B0DD01B0A98
:10327000F8E711F8013B002B02F8013B05D011F8EB
:10328000013B002B02F8013BF3D130BD421E12F886
:10329000013F002BFBD111F8013B002B02F8013B51
:1032A000F9D1704710B5203AC0F00B80B1E8185042
:1032B000203AA0E81850B1E81850A0E81850BFF420
:1032C000F5AF5FEA027C24BFB1E81850A0E81850BF
:1032D00044BF18C918C0BDE810405FEA827C24BF13
:1032E00051F8043B40F8043B08BF7047D20728BFA1
:1032F00031F8023B48BF11F8012B28BF20F8023BF0
:1033000048BF00F8012B70474FF000020429C0F0BD
:10331000128010F0030C00F01B80CCF1040CBCF107
:10332000020F18BF00F8012BA8BF20F8022BA1EB59
:103330000C0100F00DB85FEAC17C24BF00F8012B3E
:1033400000F8012B48BF00F8012B70474FF0000236
:1033500000B5134694469646203922BFA0E80C508B
:10336000A0E80C50B1F12001BFF4F7AF090728BF66
:10337000A0E80C5048BF0CC05DF804EB890028BFE2
:1033800040F8042B08BF704748BF20F8022B11F00B
:10339000804F18BF00F8012B704770477047704787
:1033A000704730B5B0F10A024FEA900E71F1000398
:1033B0004EEA817EB0EB0E0061EB91014FEA101EE8
:1033C0004EEA017E10EB0E0041EB11114FEA102E78
:1033D0004EEA016E10EB0E0041EB11214FEA104E48
:1033E0004EEA014E10EB0E0041EB1141401841F145
:1033F00000014FEAD00040EA41704FEAD10110EBE2
:1034000080054FEA810444EA907444EB01046D198D
:1034100044EB0404521BA3414FF0000348BF0A329F
:1034200000D530BD401C41F1000130BD2DE9F04711
:103430000D4699469246044600F124080168880624
:1034400004D5E06921F01001216000E00120A842CC
:1034500001DD471B00E00027A1697A1902EB090092
:10346000081AA0612078C00602D42046AFF300807D
:10347000002608E0D4E901211AF806009047206AE6
:10348000401C761C20624E45F4DB2078C0060AD52D
:103490002046AFF3008006E0D4E9012130209047B8
:1034A000206A401C2062381EA7F10107F4DC07E007
:1034B000D4E9012118F805009047206A401C2062D9
:1034C000281EA5F10105F3DC2046AFF3008020782B
:1034D000000602D50220BDE8F0870120FBE70000CE
:1034E00001694A1C02610878704700B58FB0CDE9C8
:1034F00001310021059105497944CDE903101146B8
:103500006846FFF7EFFD0FB000BD0000E5FFFFFFCD
:103510000A6802F8010B0A60704710B5436913B1DD
:10352000AFF3008001E0FFF739FD012010BD1278F4
:1035300000F124010A7000224A700122EDE71168AF
:103540004FF0FF32E9E70000074B70B50D467B44B2
:10355000FFF7CBFF0446284600F008F810B14FF003
:10356000FF3070BD204670BD71E1FFFF007B00F0B1
:1035700080007047754600F02BF8AE46050069469E
:10358000534620F00700854618B020B5FEF756F9DF
:10359000BDE820404FF000064FF000074FF0000854
:1035A0004FF0000B21F00701AC46ACE8C009ACE8D5
:1035B000C009ACE8C009ACE8C0098D46704710B539
:1035C0000446AFF300802046BDE81040FCF707BE7C
:1035D000004870472801002030380A2801D2012015
:1035E0007047002070470000000000000000002F1E
:1035F000000000000700070000147F147F1400245F
:103600002A7F2A120062640813230036495522508B
:1036100000000503000000001C22410000004122C0
:103620001C000014083E08140008083E08080000AA
:1036300000A06000000808080808000060600000A2
:10364000002010080402003E5149453E0000427F20
:103650004000004261514946002141454B3100186C
:1036600014127F10002745454539003C4A4949302E
:1036700000017109050300364949493600064949E8
:10368000291E0000363600000000563600000008F3
:1036900014224100001414141414000041221408D0
:1036A00000020151090600324959513E007C1211B5
:1036B000127C007F49494936003E41414122007F4A
:1036C0004141221C007F49494941007F0909090104
:1036D000003E4149497A007F0808087F0000417F89
:1036E0004100002040413F01007F08142241007F3B
:1036F00040404040007F020C027F007F0408107FA2
:10370000003E4141413E007F09090906003E41510A
:10371000215E007F091929460046494949310001C7
:10372000017F0101003F4040403F001F2040201F1B
:10373000003F4038403F00631408146300070870DE
:10374000080700615149454300007F414100005591
:103750002A552A55000041417F000004020102045D
:10376000004040404040000001020400002054544A
:103770005478007F4844443800384444442000389A
:103780004444487F00385454541800087E0901020C
:103790000018A4A4A47C007F080404780000447DE1
:1037A0004000004080847D00007F1028440000001D
:1037B000417F4000007C04180478007C08040478F1
:1037C00000384444443800FC2424241800182424DD
:1037D00018FC007C080404080048545454200004D9
:1037E0003F444020003C4040207C001C2040201CE6
:1037F000003C4030403C004428102844001CA0A05D
:10380000A07C004464544C44141414141414000098
:1038100000000000000000000000000000000000A8
:1038200000F800000000000000333000000000102D
:103830000C06100C0600000000000000000040C054
:103840007840C0784000043F04043F040400007046
:1038500088FC08300000001820FF211E0000F0083E
:10386000F000E018000000211C031E211E0000F0E3
:103870000888700000001E2123241927211010162B
:103880000E0000000000000000000000000000002A
:1038900000E01804020000000007182040000002A9
:1038A0000418E0000000004020180700000040401D
:1038B00080F0804040000202010F0102020000007F
:1038C00000F0000000000101011F010101000000E3
:1038D00000000000000080B0700000000000000048
:1038E00000000000000000010101010101010000D1
:1038F0000000000000000030300000000000000068
:10390000000080601804006018060100000000E05C
:1039100010080810E000000F102020100F00001009
:1039200010F8000000000020203F20200000007060
:103930000808088870000030282422213000003058
:103940000888884830000018202020110E00000050
:10395000C02010F8000000070424243F240000F8D1
:103960000888880808000019212020110E0000E0B6
:10397000108888180000000F112020110E00003858
:103980000808C83808000000003F00000000007070
:10399000880808887000001C222121221C0000E0F9
:1039A00010080810E0000000312222110F00000072
:1039B00000C0C00000000000003030000000000027
:1039C0000080000000000000806000000000000097
:1039D0008040201008000001020408102000404030
:1039E0004040404040000404040404040400000873
:1039F0001020408000000020100804020100007028
:103A000048080808F0000000003036010000C0300F
:103A1000C828E810E0000718272423140B00000032
:103A2000C038E0000000203C23020227382008F8BC
:103A3000888888700000203F202020110E00C030B0
:103A4000080808083800071820202010080008F887
:103A500008080810E000203F202020100F0008F880
:103A60008888E8081000203F20202320180008F84C
:103A70008888E8081000203F200003000000C030C4
:103A800008080838000007182020221E020008F845
:103A900008000008F808203F210101213F2000080C
:103AA00008F8080800000020203F20200000000047
:103AB0000808F8080800C08080807F00000008F82F
:103AC00088C028180800203F20012638200008F868
:103AD000080000000000203F20202020300008F8CF
:103AE000F800F8F80800203F003F003F200008F8E9
:103AF00030C00008F808203F200007183F00E01001
:103B000008080810E0000F10202020100F0008F80F
:103B100008080808F000203F210101010000E01022
:103B200008080810E0000F18242438504F0008F847
:103B3000888888887000203F2000030C30200070A7
:103B40008808080838000038202121221C001808A5
:103B500008F8080818000000203F2000000008F8BE
:103B600008000008F808001F202020201F00087807
:103B7000880000C83808000007380E010000F80867
:103B800000F80008F800033C0700073C0300081891
:103B900068808068180820302C03032C30200838F7
:103BA000C800C83808000000203F200000001008AE
:103BB0000808C838080020382621202018000000F6
:103BC00000FE020202000000007F40404000000CA6
:103BD00030C000000000000000010638C0000002F4
:103BE0000202FE000000004040407F000000000094
:103BF00004020202040000000000000000000000B7
:103C000000000000000080808080808080800002B2
:103C1000020400000000000000000000000000009E
:103C20008080808000000019242222223F2008F892
:103C3000008080000000003F112020110E000000D5
:103C4000008080800000000E112020201100000064
:103C500000808088F800000E112020103F20000016
:103C6000808080800000001F22222222130000801A
:103C700080F0888888180020203F20200000000065
:103C8000808080808000006B94949493600008F89A
:103C9000008080800000203F210000203F20008025
:103CA0009898000000000020203F20200000000025
:103CB00000809898000000C08080807F000008F895
:103CC000000080808000203F24022D30200000086A
:103CD00008F8000000000020203F20200000808025
:103CE000808080808000203F20003F20003F808037
:103CF000008080800000203F210000203F20000045
:103D0000808080800000001F202020201F008080F5
:103D100000808000000080FFA12020110E00000024
:103D2000008080808000000E112020A0FF80808015
:103D300080008080800020203F21200001000000C2
:103D40008080808080000033242424241900008097
:103D500080E0808000000000001F202000008080A4
:103D6000000000808000001F202020103F20808065
:103D700080000080808000010E30080601008080F5
:103D80000080008080800F300C030C300F0000801A
:103D90008000808080000020312E0E312000808045
:103DA00080000080808080818E7018060100008075
:103DB0008080808080000021302C22213000000093
:103DC0000000807C020200000000003F4040000034
:103DD0000000FF00000000000000FF0000000002E3
:103DE000027C800000000040403F00000000000610
:103DF000010102020404000000000000000000FEB7
:103E0000024222325E925232120202FE0000000092
:103E1000000000000000000000000000000000FFA3
:103E20004242425155646941424242FF0000000053
:103E30000000000000000000000000000000000082
:103E400008080808FF080808F9020400000000003C
:103E50000000000000000000000000000000010160
:103E600001010101FF0101012141211F00000000AA
:103E700000000000000000000000000000004030D2
:103E80008F2818100CE424252624E4140C000000CC
:103E90000000000000000000000000000000000022
:103EA0007F20100000FF4949494949F800000000FF
:103EB00000000000000000000000000000001010E2
:103EC000D0FF905020504C434C5020404000000008
:103ED00000000000000000000000000000000403DB
:103EE00000FF00414458414E6058474040000000E8
:103EF0000000000000000000000000000000106052
:103F0000028C00FE02F202FE00F800FF000000003A
:103F10000000000000000000000000000000040499
:103F20007E018047300F10270047807F000000008F
:103F30000000000000000000000000000000404001
:103F400042CC0040A09E8282829EA02020000000E1
:103F50000000000000000000000000000000000061
:103F6000003F908840432C1028464180800000008C
:103F7000000000000000000000000000000000172A
:103F800015D55557557D555755D5151700000000C7
:103F900000000000000000000000000000004040A1
:103FA000407F555555555555557F404040000000C0
:103FB0000000000000000000000000000000000001
:103FC000FC3F0008E83F00080C40000808400008DB
:103FD000EC3F00080040000804400008F83F0008DB
:103FE000F43F0008F03F0008D2BB0000CBC4000043
:103FF000BEC50000B0CB0000C6DF0000C1E300007A
:10400000CEE50000C1F90000C8FD0000B6FE0000CA
:1040100030400008000000207C0000006C01000817
:10402000AC4000087C0000200C070000880100085C
:1040300000A24A0400000000000000000102030486
:104040000607080900000000000000000000000052
:1040500000010000FFFF0A00000000000000000057
:1040600000000000000000000A0000000000000046
:104070000000000000000000000000000000000040
:104080000000000000000000000000000000000030
:10409000000000000000000002040608000000000C
:0C40A000010203040102030406070809E2
:0400000508000131BD
:00000001FF
